{
  "contractName": "Certification",
  "abi": [
    {
      "anonymous": false,
      "inputs": [
        {
          "indexed": false,
          "internalType": "string",
          "name": "certificate_id",
          "type": "string"
        }
      ],
      "name": "certificateGenerated",
      "type": "event"
    },
    {
      "inputs": [
        {
          "internalType": "string",
          "name": "",
          "type": "string"
        }
      ],
      "name": "certificates",
      "outputs": [
        {
          "internalType": "string",
          "name": "uid",
          "type": "string"
        },
        {
          "internalType": "string",
          "name": "candidate_name",
          "type": "string"
        },
        {
          "internalType": "string",
          "name": "course_name",
          "type": "string"
        },
        {
          "internalType": "string",
          "name": "org_name",
          "type": "string"
        },
        {
          "internalType": "string",
          "name": "ipfs_hash",
          "type": "string"
        }
      ],
      "stateMutability": "view",
      "type": "function"
    },
    {
      "inputs": [
        {
          "internalType": "string",
          "name": "_certificate_id",
          "type": "string"
        },
        {
          "internalType": "string",
          "name": "_uid",
          "type": "string"
        },
        {
          "internalType": "string",
          "name": "_candidate_name",
          "type": "string"
        },
        {
          "internalType": "string",
          "name": "_course_name",
          "type": "string"
        },
        {
          "internalType": "string",
          "name": "_org_name",
          "type": "string"
        },
        {
          "internalType": "string",
          "name": "_ipfs_hash",
          "type": "string"
        }
      ],
      "name": "generateCertificate",
      "outputs": [],
      "stateMutability": "nonpayable",
      "type": "function"
    },
    {
      "inputs": [
        {
          "internalType": "string",
          "name": "_certificate_id",
          "type": "string"
        }
      ],
      "name": "getCertificate",
      "outputs": [
        {
          "internalType": "string",
          "name": "_uid",
          "type": "string"
        },
        {
          "internalType": "string",
          "name": "_candidate_name",
          "type": "string"
        },
        {
          "internalType": "string",
          "name": "_course_name",
          "type": "string"
        },
        {
          "internalType": "string",
          "name": "_org_name",
          "type": "string"
        },
        {
          "internalType": "string",
          "name": "_ipfs_hash",
          "type": "string"
        }
      ],
      "stateMutability": "view",
      "type": "function"
    },
    {
      "inputs": [
        {
          "internalType": "string",
          "name": "_certificate_id",
          "type": "string"
        }
      ],
      "name": "isVerified",
      "outputs": [
        {
          "internalType": "bool",
          "name": "",
          "type": "bool"
        }
      ],
      "stateMutability": "view",
      "type": "function"
    }
  ],
  "bytecode": "0x608060405234801561000f575f80fd5b5061119c8061001d5f395ff3fe608060405234801561000f575f80fd5b506004361061004a575f3560e01c8063234c76d51461004e578063627956ae1461007e5780638f2b91ea1461009a578063ed0f2e75146100ce575b5f80fd5b61006860048036038101906100639190610a6f565b610102565b6040516100759190610ad0565b60405180910390f35b61009860048036038101906100939190610ae9565b61013a565b005b6100b460048036038101906100af9190610a6f565b61029f565b6040516100c5959493929190610c94565b60405180910390f35b6100e860048036038101906100e39190610a6f565b610586565b6040516100f9959493929190610c94565b60405180910390f35b5f805f836040516101139190610d42565b9081526020016040518091039020600401805461012f90610d85565b905014159050919050565b5f808760405161014a9190610d42565b9081526020016040518091039020600401805461016690610d85565b9050146101a8576040517f08c379a000000000000000000000000000000000000000000000000000000000815260040161019f90610e25565b60405180910390fd5b5f6040518060a00160405280878152602001868152602001858152602001848152602001838152509050805f886040516101e29190610d42565b90815260200160405180910390205f820151815f0190816102039190610fe9565b5060208201518160010190816102199190610fe9565b50604082015181600201908161022f9190610fe9565b5060608201518160030190816102459190610fe9565b50608082015181600401908161025b9190610fe9565b509050507f267fae70dc2912ede5096795f49d41fac472461a02e4f8703eceee0e785bbd1d8760405161028e91906110b8565b60405180910390a150505050505050565b5f818051602081018201805184825260208301602085012081835280955050505050505f91509050805f0180546102d590610d85565b80601f016020809104026020016040519081016040528092919081815260200182805461030190610d85565b801561034c5780601f106103235761010080835404028352916020019161034c565b820191905f5260205f20905b81548152906001019060200180831161032f57829003601f168201915b50505050509080600101805461036190610d85565b80601f016020809104026020016040519081016040528092919081815260200182805461038d90610d85565b80156103d85780601f106103af576101008083540402835291602001916103d8565b820191905f5260205f20905b8154815290600101906020018083116103bb57829003601f168201915b5050505050908060020180546103ed90610d85565b80601f016020809104026020016040519081016040528092919081815260200182805461041990610d85565b80156104645780601f1061043b57610100808354040283529160200191610464565b820191905f5260205f20905b81548152906001019060200180831161044757829003601f168201915b50505050509080600301805461047990610d85565b80601f01602080910402602001604051908101604052809291908181526020018280546104a590610d85565b80156104f05780601f106104c7576101008083540402835291602001916104f0565b820191905f5260205f20905b8154815290600101906020018083116104d357829003601f168201915b50505050509080600401805461050590610d85565b80601f016020809104026020016040519081016040528092919081815260200182805461053190610d85565b801561057c5780601f106105535761010080835404028352916020019161057c565b820191905f5260205f20905b81548152906001019060200180831161055f57829003601f168201915b5050505050905085565b60608060608060605f808760405161059e9190610d42565b90815260200160405180910390206040518060a00160405290815f820180546105c690610d85565b80601f01602080910402602001604051908101604052809291908181526020018280546105f290610d85565b801561063d5780601f106106145761010080835404028352916020019161063d565b820191905f5260205f20905b81548152906001019060200180831161062057829003601f168201915b5050505050815260200160018201805461065690610d85565b80601f016020809104026020016040519081016040528092919081815260200182805461068290610d85565b80156106cd5780601f106106a4576101008083540402835291602001916106cd565b820191905f5260205f20905b8154815290600101906020018083116106b057829003601f168201915b505050505081526020016002820180546106e690610d85565b80601f016020809104026020016040519081016040528092919081815260200182805461071290610d85565b801561075d5780601f106107345761010080835404028352916020019161075d565b820191905f5260205f20905b81548152906001019060200180831161074057829003601f168201915b5050505050815260200160038201805461077690610d85565b80601f01602080910402602001604051908101604052809291908181526020018280546107a290610d85565b80156107ed5780601f106107c4576101008083540402835291602001916107ed565b820191905f5260205f20905b8154815290600101906020018083116107d057829003601f168201915b5050505050815260200160048201805461080690610d85565b80601f016020809104026020016040519081016040528092919081815260200182805461083290610d85565b801561087d5780601f106108545761010080835404028352916020019161087d565b820191905f5260205f20905b81548152906001019060200180831161086057829003601f168201915b50505050508152505090505f80886040516108989190610d42565b908152602001604051809103902060040180546108b490610d85565b9050036108f6576040517f08c379a00000000000000000000000000000000000000000000000000000000081526004016108ed90611148565b60405180910390fd5b805f01518160200151826040015183606001518460800151955095509550955095505091939590929450565b5f604051905090565b5f80fd5b5f80fd5b5f80fd5b5f80fd5b5f601f19601f8301169050919050565b7f4e487b71000000000000000000000000000000000000000000000000000000005f52604160045260245ffd5b6109818261093b565b810181811067ffffffffffffffff821117156109a05761099f61094b565b5b80604052505050565b5f6109b2610922565b90506109be8282610978565b919050565b5f67ffffffffffffffff8211156109dd576109dc61094b565b5b6109e68261093b565b9050602081019050919050565b828183375f83830152505050565b5f610a13610a0e846109c3565b6109a9565b905082815260208101848484011115610a2f57610a2e610937565b5b610a3a8482856109f3565b509392505050565b5f82601f830112610a5657610a55610933565b5b8135610a66848260208601610a01565b91505092915050565b5f60208284031215610a8457610a8361092b565b5b5f82013567ffffffffffffffff811115610aa157610aa061092f565b5b610aad84828501610a42565b91505092915050565b5f8115159050919050565b610aca81610ab6565b82525050565b5f602082019050610ae35f830184610ac1565b92915050565b5f805f805f8060c08789031215610b0357610b0261092b565b5b5f87013567ffffffffffffffff811115610b2057610b1f61092f565b5b610b2c89828a01610a42565b965050602087013567ffffffffffffffff811115610b4d57610b4c61092f565b5b610b5989828a01610a42565b955050604087013567ffffffffffffffff811115610b7a57610b7961092f565b5b610b8689828a01610a42565b945050606087013567ffffffffffffffff811115610ba757610ba661092f565b5b610bb389828a01610a42565b935050608087013567ffffffffffffffff811115610bd457610bd361092f565b5b610be089828a01610a42565b92505060a087013567ffffffffffffffff811115610c0157610c0061092f565b5b610c0d89828a01610a42565b9150509295509295509295565b5f81519050919050565b5f82825260208201905092915050565b5f5b83811015610c51578082015181840152602081019050610c36565b5f8484015250505050565b5f610c6682610c1a565b610c708185610c24565b9350610c80818560208601610c34565b610c898161093b565b840191505092915050565b5f60a0820190508181035f830152610cac8188610c5c565b90508181036020830152610cc08187610c5c565b90508181036040830152610cd48186610c5c565b90508181036060830152610ce88185610c5c565b90508181036080830152610cfc8184610c5c565b90509695505050505050565b5f81905092915050565b5f610d1c82610c1a565b610d268185610d08565b9350610d36818560208601610c34565b80840191505092915050565b5f610d4d8284610d12565b915081905092915050565b7f4e487b71000000000000000000000000000000000000000000000000000000005f52602260045260245ffd5b5f6002820490506001821680610d9c57607f821691505b602082108103610daf57610dae610d58565b5b50919050565b7f43657274696669636174652077697468207468697320494420616c72656164795f8201527f2065786973747300000000000000000000000000000000000000000000000000602082015250565b5f610e0f602783610c24565b9150610e1a82610db5565b604082019050919050565b5f6020820190508181035f830152610e3c81610e03565b9050919050565b5f819050815f5260205f209050919050565b5f6020601f8301049050919050565b5f82821b905092915050565b5f60088302610e9f7fffffffffffffffffffffffffffffffffffffffffffffffffffffffffffffffff82610e64565b610ea98683610e64565b95508019841693508086168417925050509392505050565b5f819050919050565b5f819050919050565b5f610eed610ee8610ee384610ec1565b610eca565b610ec1565b9050919050565b5f819050919050565b610f0683610ed3565b610f1a610f1282610ef4565b848454610e70565b825550505050565b5f90565b610f2e610f22565b610f39818484610efd565b505050565b5b81811015610f5c57610f515f82610f26565b600181019050610f3f565b5050565b601f821115610fa157610f7281610e43565b610f7b84610e55565b81016020851015610f8a578190505b610f9e610f9685610e55565b830182610f3e565b50505b505050565b5f82821c905092915050565b5f610fc15f1984600802610fa6565b1980831691505092915050565b5f610fd98383610fb2565b9150826002028217905092915050565b610ff282610c1a565b67ffffffffffffffff81111561100b5761100a61094b565b5b6110158254610d85565b611020828285610f60565b5f60209050601f831160018114611051575f841561103f578287015190505b6110498582610fce565b8655506110b0565b601f19841661105f86610e43565b5f5b8281101561108657848901518255600182019150602085019450602081019050611061565b868310156110a3578489015161109f601f891682610fb2565b8355505b6001600288020188555050505b505050505050565b5f6020820190508181035f8301526110d08184610c5c565b905092915050565b7f43657274696669636174652077697468207468697320494420646f6573206e6f5f8201527f7420657869737400000000000000000000000000000000000000000000000000602082015250565b5f611132602783610c24565b915061113d826110d8565b604082019050919050565b5f6020820190508181035f83015261115f81611126565b905091905056fea26469706673582212207d0ca7250c290a8c20d590117a9962d66dbbe6ebe3a796b847fe70b79b438cc664736f6c63430008150033",
  "immutableReferences": {},
  "source": "// SPDX-License-Identifier: MIT\r\npragma solidity ^0.8.19;\r\n\r\ncontract Certification {\r\n    struct Certificate {\r\n        string uid;\r\n        string candidate_name;\r\n        string course_name;\r\n        string org_name;\r\n        string ipfs_hash;\r\n    }\r\n\r\n    mapping(string => Certificate) public certificates;\r\n    event certificateGenerated(string certificate_id);\r\n\r\n    function generateCertificate(\r\n        string memory _certificate_id,\r\n        string memory _uid,\r\n        string memory _candidate_name,\r\n        string memory _course_name,\r\n        string memory _org_name,\r\n        string memory _ipfs_hash\r\n    ) public {\r\n        // Check if certificate with the given ID already exists\r\n        require(\r\n            bytes(certificates[_certificate_id].ipfs_hash).length == 0,\r\n            \"Certificate with this ID already exists\"\r\n        );\r\n\r\n        // Create the certificate\r\n        Certificate memory cert = Certificate({\r\n            uid: _uid,\r\n            candidate_name: _candidate_name,\r\n            course_name: _course_name,\r\n            org_name: _org_name,\r\n            ipfs_hash: _ipfs_hash\r\n        });\r\n\r\n        // Store the certificate in the mapping\r\n        certificates[_certificate_id] = cert;\r\n\r\n        // Emit an event\r\n        emit certificateGenerated(_certificate_id);\r\n    }\r\n\r\n    function getCertificate(\r\n        string memory _certificate_id\r\n    )\r\n        public\r\n        view\r\n        returns (\r\n            string memory _uid,\r\n            string memory _candidate_name,\r\n            string memory _course_name,\r\n            string memory _org_name,\r\n            string memory _ipfs_hash\r\n        )\r\n    {\r\n        Certificate memory cert = certificates[_certificate_id];\r\n\r\n        // Check if the certificate with the given ID exists\r\n        require(\r\n            bytes(certificates[_certificate_id].ipfs_hash).length != 0,\r\n            \"Certificate with this ID does not exist\"\r\n        );\r\n\r\n        // Return the values from the certificate\r\n        return (\r\n            cert.uid,\r\n            cert.candidate_name,\r\n            cert.course_name,\r\n            cert.org_name,\r\n            cert.ipfs_hash\r\n        );\r\n    }\r\n\r\n    function isVerified(\r\n        string memory _certificate_id\r\n    ) public view returns (bool) {\r\n        return bytes(certificates[_certificate_id].ipfs_hash).length != 0;\r\n    }\r\n}",
  "sourcePath": "D:\\Certificate validation system\\contracts\\Certification.sol",
  "compiler": {
    "name": "solc",
    "version": "0.8.21+commit.d9974bed.Emscripten.clang"
  },
  "schemaVersion": "3.4.16",
  "updatedAt": "2024-08-28T19:42:39.784Z",
  "devdoc": {
    "kind": "dev",
    "methods": {},
    "version": 1
  },
  "userdoc": {
    "kind": "user",
    "methods": {},
    "version": 1
  }
}